{"contracts/SubsidyManager.sol":{"SubsidyManager":{"abi":[{"inputs":[],"stateMutability":"nonpayable","type":"constructor"},{"anonymous":false,"inputs":[{"indexed":true,"internalType":"bytes32","name":"projectId","type":"bytes32"},{"indexed":true,"internalType":"uint256","name":"index","type":"uint256"},{"indexed":false,"internalType":"string","name":"name","type":"string"},{"indexed":false,"internalType":"uint256","name":"requiredProduction","type":"uint256"},{"indexed":false,"internalType":"uint256","name":"percent","type":"uint256"},{"indexed":false,"internalType":"bool","name":"manual","type":"bool"}],"name":"MilestoneAdded","type":"event"},{"anonymous":false,"inputs":[{"indexed":true,"internalType":"bytes32","name":"projectId","type":"bytes32"},{"indexed":true,"internalType":"uint256","name":"index","type":"uint256"},{"indexed":false,"internalType":"uint256","name":"amount","type":"uint256"},{"indexed":false,"internalType":"address","name":"producer","type":"address"}],"name":"MilestoneCompleted","type":"event"},{"anonymous":false,"inputs":[{"indexed":true,"internalType":"bytes32","name":"projectId","type":"bytes32"},{"indexed":true,"internalType":"address","name":"producer","type":"address"},{"indexed":false,"internalType":"address","name":"token","type":"address"},{"indexed":false,"internalType":"uint256","name":"totalSubsidy","type":"uint256"}],"name":"ProjectCreated","type":"event"},{"inputs":[{"internalType":"bytes32","name":"projectId","type":"bytes32"},{"internalType":"string","name":"name","type":"string"},{"internalType":"uint256","name":"requiredProduction","type":"uint256"},{"internalType":"uint256","name":"percent","type":"uint256"},{"internalType":"bool","name":"manualVerification","type":"bool"}],"name":"addMilestone","outputs":[],"stateMutability":"nonpayable","type":"function"},{"inputs":[{"internalType":"bytes32","name":"projectId","type":"bytes32"},{"internalType":"address","name":"producer","type":"address"},{"internalType":"address","name":"token","type":"address"},{"internalType":"uint256","name":"totalSubsidy","type":"uint256"}],"name":"createProject","outputs":[],"stateMutability":"nonpayable","type":"function"},{"inputs":[{"internalType":"bytes32","name":"projectId","type":"bytes32"},{"internalType":"uint256","name":"index","type":"uint256"}],"name":"getMilestone","outputs":[{"internalType":"string","name":"name","type":"string"},{"internalType":"uint256","name":"requiredProduction","type":"uint256"},{"internalType":"uint256","name":"percent","type":"uint256"},{"internalType":"bool","name":"manualVerification","type":"bool"},{"internalType":"bool","name":"completed","type":"bool"}],"stateMutability":"view","type":"function"},{"inputs":[{"internalType":"bytes32","name":"projectId","type":"bytes32"}],"name":"getProjectInfo","outputs":[{"internalType":"address","name":"producer","type":"address"},{"internalType":"address","name":"token","type":"address"},{"internalType":"uint256","name":"totalSubsidy","type":"uint256"},{"internalType":"uint256","name":"released","type":"uint256"},{"internalType":"uint256","name":"milestoneCount","type":"uint256"}],"stateMutability":"view","type":"function"},{"inputs":[],"name":"government","outputs":[{"internalType":"address","name":"","type":"address"}],"stateMutability":"view","type":"function"},{"inputs":[{"internalType":"bytes32","name":"projectId","type":"bytes32"},{"internalType":"uint256","name":"index","type":"uint256"}],"name":"markMilestoneComplete","outputs":[],"stateMutability":"nonpayable","type":"function"}],"evm":{"bytecode":{"linkReferences":{},"object":"608060405234801561001057600080fd5b50336000806101000a81548173ffffffffffffffffffffffffffffffffffffffff021916908373ffffffffffffffffffffffffffffffffffffffff1602179055506118aa806100606000396000f3fe608060405234801561001057600080fd5b50600436106100625760003560e01c80632672f5261461006757806354626bed146100855780637f6661c8146100a1578063aa2591ef146100d5578063db438794146100f1578063e05668331461010d575b600080fd5b61006f610141565b60405161007c9190610c36565b60405180910390f35b61009f600480360381019061009a9190610cf3565b610165565b005b6100bb60048036038101906100b69190610d5a565b610385565b6040516100cc959493929190610e54565b60405180910390f35b6100ef60048036038101906100ea9190610f3f565b61053a565b005b61010b60048036038101906101069190610d5a565b610796565b005b61012760048036038101906101229190610fd9565b610b16565b604051610138959493929190611006565b60405180910390f35b60008054906101000a900473ffffffffffffffffffffffffffffffffffffffff1681565b60008054906101000a900473ffffffffffffffffffffffffffffffffffffffff1673ffffffffffffffffffffffffffffffffffffffff163373ffffffffffffffffffffffffffffffffffffffff16146101f3576040517f08c379a00000000000000000000000000000000000000000000000000000000081526004016101ea906110a5565b60405180910390fd5b6001600085815260200190815260200160002060050160009054906101000a900460ff1615610257576040517f08c379a000000000000000000000000000000000000000000000000000000000815260040161024e90611111565b60405180910390fd5b6000600160008681526020019081526020016000209050848160000181905550838160010160006101000a81548173ffffffffffffffffffffffffffffffffffffffff021916908373ffffffffffffffffffffffffffffffffffffffff160217905550828160020160006101000a81548173ffffffffffffffffffffffffffffffffffffffff021916908373ffffffffffffffffffffffffffffffffffffffff1602179055508181600301819055506000816004018190555060018160050160006101000a81548160ff0219169083151502179055508373ffffffffffffffffffffffffffffffffffffffff16857f1f3dc198274f9126187226163790f56ad50dc025c7f31b39b7db8b380636dd798585604051610376929190611131565b60405180910390a35050505050565b606060008060008060006001600089815260200190815260200160002090508060050160009054906101000a900460ff166103f5576040517f08c379a00000000000000000000000000000000000000000000000000000000081526004016103ec906111a6565b60405180910390fd5b8060060180549050871061043e576040517f08c379a000000000000000000000000000000000000000000000000000000000815260040161043590611212565b60405180910390fd5b600081600601888154811061045657610455611232565b5b9060005260206000209060040201905080600001816001015482600201548360030160009054906101000a900460ff168460030160019054906101000a900460ff168480546104a490611290565b80601f01602080910402602001604051908101604052809291908181526020018280546104d090611290565b801561051d5780601f106104f25761010080835404028352916020019161051d565b820191906000526020600020905b81548152906001019060200180831161050057829003601f168201915b505050505094509650965096509650965050509295509295909350565b60008054906101000a900473ffffffffffffffffffffffffffffffffffffffff1673ffffffffffffffffffffffffffffffffffffffff163373ffffffffffffffffffffffffffffffffffffffff16146105c8576040517f08c379a00000000000000000000000000000000000000000000000000000000081526004016105bf906110a5565b60405180910390fd5b60006001600088815260200190815260200160002090508060050160009054906101000a900460ff16610630576040517f08c379a0000000000000000000000000000000000000000000000000000000008152600401610627906111a6565b60405180910390fd5b806006016040518060a0016040528088888080601f016020809104026020016040519081016040528093929190818152602001838380828437600081840152601f19601f820116905080830192505050505050508152602001868152602001858152602001841515815260200160001515815250908060018154018082558091505060019003906000526020600020906004020160009091909190915060008201518160000190816106e2919061149c565b50602082015181600101556040820151816002015560608201518160030160006101000a81548160ff02191690831515021790555060808201518160030160016101000a81548160ff02191690831515021790555050506001816006018054905061074d919061159d565b877feaf44c69844858e28ae386ed1c1f7b905798efb21f46d08d3eeb4dd08f1ff967888888888860405161078595949392919061160d565b60405180910390a350505050505050565b60008054906101000a900473ffffffffffffffffffffffffffffffffffffffff1673ffffffffffffffffffffffffffffffffffffffff163373ffffffffffffffffffffffffffffffffffffffff1614610824576040517f08c379a000000000000000000000000000000000000000000000000000000000815260040161081b906110a5565b60405180910390fd5b60006001600084815260200190815260200160002090508060050160009054906101000a900460ff1661088c576040517f08c379a0000000000000000000000000000000000000000000000000000000008152600401610883906111a6565b60405180910390fd5b806006018054905082106108d5576040517f08c379a00000000000000000000000000000000000000000000000000000000081526004016108cc90611212565b60405180910390fd5b60008160060183815481106108ed576108ec611232565b5b906000526020600020906004020190508060030160019054906101000a900460ff161561094f576040517f08c379a0000000000000000000000000000000000000000000000000000000008152600401610946906116a7565b60405180910390fd5b600060648260020154846003015461096791906116c7565b6109719190611738565b905060018260030160016101000a81548160ff021916908315150217905550808360040160008282546109a49190611769565b925050819055508260020160009054906101000a900473ffffffffffffffffffffffffffffffffffffffff1673ffffffffffffffffffffffffffffffffffffffff1663a9059cbb8460010160009054906101000a900473ffffffffffffffffffffffffffffffffffffffff16836040518363ffffffff1660e01b8152600401610a2e929190611131565b6020604051808303816000875af1158015610a4d573d6000803e3d6000fd5b505050506040513d601f19601f82011682018060405250810190610a7191906117b2565b610ab0576040517f08c379a0000000000000000000000000000000000000000000000000000000008152600401610aa79061182b565b60405180910390fd5b83857f164638991557d57e3670982ecf72fb1154f7e1d09c7ba046dd0bd196c489e447838660010160009054906101000a900473ffffffffffffffffffffffffffffffffffffffff16604051610b0792919061184b565b60405180910390a35050505050565b6000806000806000806001600088815260200190815260200160002090508060050160009054906101000a900460ff16610b85576040517f08c379a0000000000000000000000000000000000000000000000000000000008152600401610b7c906111a6565b60405180910390fd5b8060010160009054906101000a900473ffffffffffffffffffffffffffffffffffffffff168160020160009054906101000a900473ffffffffffffffffffffffffffffffffffffffff16826003015483600401548460060180549050955095509550955095505091939590929450565b600073ffffffffffffffffffffffffffffffffffffffff82169050919050565b6000610c2082610bf5565b9050919050565b610c3081610c15565b82525050565b6000602082019050610c4b6000830184610c27565b92915050565b600080fd5b600080fd5b6000819050919050565b610c6e81610c5b565b8114610c7957600080fd5b50565b600081359050610c8b81610c65565b92915050565b610c9a81610c15565b8114610ca557600080fd5b50565b600081359050610cb781610c91565b92915050565b6000819050919050565b610cd081610cbd565b8114610cdb57600080fd5b50565b600081359050610ced81610cc7565b92915050565b60008060008060808587031215610d0d57610d0c610c51565b5b6000610d1b87828801610c7c565b9450506020610d2c87828801610ca8565b9350506040610d3d87828801610ca8565b9250506060610d4e87828801610cde565b91505092959194509250565b60008060408385031215610d7157610d70610c51565b5b6000610d7f85828601610c7c565b9250506020610d9085828601610cde565b9150509250929050565b600081519050919050565b600082825260208201905092915050565b60005b83811015610dd4578082015181840152602081019050610db9565b60008484015250505050565b6000601f19601f8301169050919050565b6000610dfc82610d9a565b610e068185610da5565b9350610e16818560208601610db6565b610e1f81610de0565b840191505092915050565b610e3381610cbd565b82525050565b60008115159050919050565b610e4e81610e39565b82525050565b600060a0820190508181036000830152610e6e8188610df1565b9050610e7d6020830187610e2a565b610e8a6040830186610e2a565b610e976060830185610e45565b610ea46080830184610e45565b9695505050505050565b600080fd5b600080fd5b600080fd5b60008083601f840112610ed357610ed2610eae565b5b8235905067ffffffffffffffff811115610ef057610eef610eb3565b5b602083019150836001820283011115610f0c57610f0b610eb8565b5b9250929050565b610f1c81610e39565b8114610f2757600080fd5b50565b600081359050610f3981610f13565b92915050565b60008060008060008060a08789031215610f5c57610f5b610c51565b5b6000610f6a89828a01610c7c565b965050602087013567ffffffffffffffff811115610f8b57610f8a610c56565b5b610f9789828a01610ebd565b95509550506040610faa89828a01610cde565b9350506060610fbb89828a01610cde565b9250506080610fcc89828a01610f2a565b9150509295509295509295565b600060208284031215610fef57610fee610c51565b5b6000610ffd84828501610c7c565b91505092915050565b600060a08201905061101b6000830188610c27565b6110286020830187610c27565b6110356040830186610e2a565b6110426060830185610e2a565b61104f6080830184610e2a565b9695505050505050565b7f4f6e6c7920676f7665726e6d656e740000000000000000000000000000000000600082015250565b600061108f600f83610da5565b915061109a82611059565b602082019050919050565b600060208201905081810360008301526110be81611082565b9050919050565b7f50726f6a65637420657869737473000000000000000000000000000000000000600082015250565b60006110fb600e83610da5565b9150611106826110c5565b602082019050919050565b6000602082019050818103600083015261112a816110ee565b9050919050565b60006040820190506111466000830185610c27565b6111536020830184610e2a565b9392505050565b7f4e6f2070726f6a65637400000000000000000000000000000000000000000000600082015250565b6000611190600a83610da5565b915061119b8261115a565b602082019050919050565b600060208201905081810360008301526111bf81611183565b9050919050565b7f496e76616c696420696e64657800000000000000000000000000000000000000600082015250565b60006111fc600d83610da5565b9150611207826111c6565b602082019050919050565b6000602082019050818103600083015261122b816111ef565b9050919050565b7f4e487b7100000000000000000000000000000000000000000000000000000000600052603260045260246000fd5b7f4e487b7100000000000000000000000000000000000000000000000000000000600052602260045260246000fd5b600060028204905060018216806112a857607f821691505b6020821081036112bb576112ba611261565b5b50919050565b7f4e487b7100000000000000000000000000000000000000000000000000000000600052604160045260246000fd5b60008190508160005260206000209050919050565b60006020601f8301049050919050565b600082821b905092915050565b6000600883026113527fffffffffffffffffffffffffffffffffffffffffffffffffffffffffffffffff82611315565b61135c8683611315565b95508019841693508086168417925050509392505050565b6000819050919050565b600061139961139461138f84610cbd565b611374565b610cbd565b9050919050565b6000819050919050565b6113b38361137e565b6113c76113bf826113a0565b848454611322565b825550505050565b600090565b6113dc6113cf565b6113e78184846113aa565b505050565b5b8181101561140b576114006000826113d4565b6001810190506113ed565b5050565b601f82111561145057611421816112f0565b61142a84611305565b81016020851015611439578190505b61144d61144585611305565b8301826113ec565b50505b505050565b600082821c905092915050565b600061147360001984600802611455565b1980831691505092915050565b600061148c8383611462565b9150826002028217905092915050565b6114a582610d9a565b67ffffffffffffffff8111156114be576114bd6112c1565b5b6114c88254611290565b6114d382828561140f565b600060209050601f83116001811461150657600084156114f4578287015190505b6114fe8582611480565b865550611566565b601f198416611514866112f0565b60005b8281101561153c57848901518255600182019150602085019450602081019050611517565b868310156115595784890151611555601f891682611462565b8355505b6001600288020188555050505b505050505050565b7f4e487b7100000000000000000000000000000000000000000000000000000000600052601160045260246000fd5b60006115a882610cbd565b91506115b383610cbd565b92508282039050818111156115cb576115ca61156e565b5b92915050565b82818337600083830152505050565b60006115ec8385610da5565b93506115f98385846115d1565b61160283610de0565b840190509392505050565b600060808201905081810360008301526116288187896115e0565b90506116376020830186610e2a565b6116446040830185610e2a565b6116516060830184610e45565b9695505050505050565b7f416c726561647920636f6d706c65746564000000000000000000000000000000600082015250565b6000611691601183610da5565b915061169c8261165b565b602082019050919050565b600060208201905081810360008301526116c081611684565b9050919050565b60006116d282610cbd565b91506116dd83610cbd565b92508282026116eb81610cbd565b915082820484148315176117025761170161156e565b5b5092915050565b7f4e487b7100000000000000000000000000000000000000000000000000000000600052601260045260246000fd5b600061174382610cbd565b915061174e83610cbd565b92508261175e5761175d611709565b5b828204905092915050565b600061177482610cbd565b915061177f83610cbd565b92508282019050808211156117975761179661156e565b5b92915050565b6000815190506117ac81610f13565b92915050565b6000602082840312156117c8576117c7610c51565b5b60006117d68482850161179d565b91505092915050565b7f546f6b656e207472616e73666572206661696c65640000000000000000000000600082015250565b6000611815601583610da5565b9150611820826117df565b602082019050919050565b6000602082019050818103600083015261184481611808565b9050919050565b60006040820190506118606000830185610e2a565b61186d6020830184610c27565b939250505056fea26469706673582212206712ed4c188518bff699c1b37cac231e15a8370f497279df8f8a2a195ed94a6864736f6c63430008130033","opcodes":"PUSH1 0x80 PUSH1 0x40 MSTORE CALLVALUE DUP1 ISZERO PUSH2 0x10 JUMPI PUSH1 0x0 DUP1 REVERT JUMPDEST POP CALLER PUSH1 0x0 DUP1 PUSH2 0x100 EXP DUP2 SLOAD DUP2 PUSH20 0xFFFFFFFFFFFFFFFFFFFFFFFFFFFFFFFFFFFFFFFF MUL NOT AND SWAP1 DUP4 PUSH20 0xFFFFFFFFFFFFFFFFFFFFFFFFFFFFFFFFFFFFFFFF AND MUL OR SWAP1 SSTORE POP PUSH2 0x18AA DUP1 PUSH2 0x60 PUSH1 0x0 CODECOPY PUSH1 0x0 RETURN INVALID PUSH1 0x80 PUSH1 0x40 MSTORE CALLVALUE DUP1 ISZERO PUSH2 0x10 JUMPI PUSH1 0x0 DUP1 REVERT JUMPDEST POP PUSH1 0x4 CALLDATASIZE LT PUSH2 0x62 JUMPI PUSH1 0x0 CALLDATALOAD PUSH1 0xE0 SHR DUP1 PUSH4 0x2672F526 EQ PUSH2 0x67 JUMPI DUP1 PUSH4 0x54626BED EQ PUSH2 0x85 JUMPI DUP1 PUSH4 0x7F6661C8 EQ PUSH2 0xA1 JUMPI DUP1 PUSH4 0xAA2591EF EQ PUSH2 0xD5 JUMPI DUP1 PUSH4 0xDB438794 EQ PUSH2 0xF1 JUMPI DUP1 PUSH4 0xE0566833 EQ PUSH2 0x10D JUMPI JUMPDEST PUSH1 0x0 DUP1 REVERT JUMPDEST PUSH2 0x6F PUSH2 0x141 JUMP JUMPDEST PUSH1 0x40 MLOAD PUSH2 0x7C SWAP2 SWAP1 PUSH2 0xC36 JUMP JUMPDEST PUSH1 0x40 MLOAD DUP1 SWAP2 SUB SWAP1 RETURN JUMPDEST PUSH2 0x9F PUSH1 0x4 DUP1 CALLDATASIZE SUB DUP2 ADD SWAP1 PUSH2 0x9A SWAP2 SWAP1 PUSH2 0xCF3 JUMP JUMPDEST PUSH2 0x165 JUMP JUMPDEST STOP JUMPDEST PUSH2 0xBB PUSH1 0x4 DUP1 CALLDATASIZE SUB DUP2 ADD SWAP1 PUSH2 0xB6 SWAP2 SWAP1 PUSH2 0xD5A JUMP JUMPDEST PUSH2 0x385 JUMP JUMPDEST PUSH1 0x40 MLOAD PUSH2 0xCC SWAP6 SWAP5 SWAP4 SWAP3 SWAP2 SWAP1 PUSH2 0xE54 JUMP JUMPDEST PUSH1 0x40 MLOAD DUP1 SWAP2 SUB SWAP1 RETURN JUMPDEST PUSH2 0xEF PUSH1 0x4 DUP1 CALLDATASIZE SUB DUP2 ADD SWAP1 PUSH2 0xEA SWAP2 SWAP1 PUSH2 0xF3F JUMP JUMPDEST PUSH2 0x53A JUMP JUMPDEST STOP JUMPDEST PUSH2 0x10B PUSH1 0x4 DUP1 CALLDATASIZE SUB DUP2 ADD SWAP1 PUSH2 0x106 SWAP2 SWAP1 PUSH2 0xD5A JUMP JUMPDEST PUSH2 0x796 JUMP JUMPDEST STOP JUMPDEST PUSH2 0x127 PUSH1 0x4 DUP1 CALLDATASIZE SUB DUP2 ADD SWAP1 PUSH2 0x122 SWAP2 SWAP1 PUSH2 0xFD9 JUMP JUMPDEST PUSH2 0xB16 JUMP JUMPDEST PUSH1 0x40 MLOAD PUSH2 0x138 SWAP6 SWAP5 SWAP4 SWAP3 SWAP2 SWAP1 PUSH2 0x1006 JUMP JUMPDEST PUSH1 0x40 MLOAD DUP1 SWAP2 SUB SWAP1 RETURN JUMPDEST PUSH1 0x0 DUP1 SLOAD SWAP1 PUSH2 0x100 EXP SWAP1 DIV PUSH20 0xFFFFFFFFFFFFFFFFFFFFFFFFFFFFFFFFFFFFFFFF AND DUP2 JUMP JUMPDEST PUSH1 0x0 DUP1 SLOAD SWAP1 PUSH2 0x100 EXP SWAP1 DIV PUSH20 0xFFFFFFFFFFFFFFFFFFFFFFFFFFFFFFFFFFFFFFFF AND PUSH20 0xFFFFFFFFFFFFFFFFFFFFFFFFFFFFFFFFFFFFFFFF AND CALLER PUSH20 0xFFFFFFFFFFFFFFFFFFFFFFFFFFFFFFFFFFFFFFFF AND EQ PUSH2 0x1F3 JUMPI PUSH1 0x40 MLOAD PUSH32 0x8C379A000000000000000000000000000000000000000000000000000000000 DUP2 MSTORE PUSH1 0x4 ADD PUSH2 0x1EA SWAP1 PUSH2 0x10A5 JUMP JUMPDEST PUSH1 0x40 MLOAD DUP1 SWAP2 SUB SWAP1 REVERT JUMPDEST PUSH1 0x1 PUSH1 0x0 DUP6 DUP2 MSTORE PUSH1 0x20 ADD SWAP1 DUP2 MSTORE PUSH1 0x20 ADD PUSH1 0x0 KECCAK256 PUSH1 0x5 ADD PUSH1 0x0 SWAP1 SLOAD SWAP1 PUSH2 0x100 EXP SWAP1 DIV PUSH1 0xFF AND ISZERO PUSH2 0x257 JUMPI PUSH1 0x40 MLOAD PUSH32 0x8C379A000000000000000000000000000000000000000000000000000000000 DUP2 MSTORE PUSH1 0x4 ADD PUSH2 0x24E SWAP1 PUSH2 0x1111 JUMP JUMPDEST PUSH1 0x40 MLOAD DUP1 SWAP2 SUB SWAP1 REVERT JUMPDEST PUSH1 0x0 PUSH1 0x1 PUSH1 0x0 DUP7 DUP2 MSTORE PUSH1 0x20 ADD SWAP1 DUP2 MSTORE PUSH1 0x20 ADD PUSH1 0x0 KECCAK256 SWAP1 POP DUP5 DUP2 PUSH1 0x0 ADD DUP2 SWAP1 SSTORE POP DUP4 DUP2 PUSH1 0x1 ADD PUSH1 0x0 PUSH2 0x100 EXP DUP2 SLOAD DUP2 PUSH20 0xFFFFFFFFFFFFFFFFFFFFFFFFFFFFFFFFFFFFFFFF MUL NOT AND SWAP1 DUP4 PUSH20 0xFFFFFFFFFFFFFFFFFFFFFFFFFFFFFFFFFFFFFFFF AND MUL OR SWAP1 SSTORE POP DUP3 DUP2 PUSH1 0x2 ADD PUSH1 0x0 PUSH2 0x100 EXP DUP2 SLOAD DUP2 PUSH20 0xFFFFFFFFFFFFFFFFFFFFFFFFFFFFFFFFFFFFFFFF MUL NOT AND SWAP1 DUP4 PUSH20 0xFFFFFFFFFFFFFFFFFFFFFFFFFFFFFFFFFFFFFFFF AND MUL OR SWAP1 SSTORE POP DUP2 DUP2 PUSH1 0x3 ADD DUP2 SWAP1 SSTORE POP PUSH1 0x0 DUP2 PUSH1 0x4 ADD DUP2 SWAP1 SSTORE POP PUSH1 0x1 DUP2 PUSH1 0x5 ADD PUSH1 0x0 PUSH2 0x100 EXP DUP2 SLOAD DUP2 PUSH1 0xFF MUL NOT AND SWAP1 DUP4 ISZERO ISZERO MUL OR SWAP1 SSTORE POP DUP4 PUSH20 0xFFFFFFFFFFFFFFFFFFFFFFFFFFFFFFFFFFFFFFFF AND DUP6 PUSH32 0x1F3DC198274F9126187226163790F56AD50DC025C7F31B39B7DB8B380636DD79 DUP6 DUP6 PUSH1 0x40 MLOAD PUSH2 0x376 SWAP3 SWAP2 SWAP1 PUSH2 0x1131 JUMP JUMPDEST PUSH1 0x40 MLOAD DUP1 SWAP2 SUB SWAP1 LOG3 POP POP POP POP POP JUMP JUMPDEST PUSH1 0x60 PUSH1 0x0 DUP1 PUSH1 0x0 DUP1 PUSH1 0x0 PUSH1 0x1 PUSH1 0x0 DUP10 DUP2 MSTORE PUSH1 0x20 ADD SWAP1 DUP2 MSTORE PUSH1 0x20 ADD PUSH1 0x0 KECCAK256 SWAP1 POP DUP1 PUSH1 0x5 ADD PUSH1 0x0 SWAP1 SLOAD SWAP1 PUSH2 0x100 EXP SWAP1 DIV PUSH1 0xFF AND PUSH2 0x3F5 JUMPI PUSH1 0x40 MLOAD PUSH32 0x8C379A000000000000000000000000000000000000000000000000000000000 DUP2 MSTORE PUSH1 0x4 ADD PUSH2 0x3EC SWAP1 PUSH2 0x11A6 JUMP JUMPDEST PUSH1 0x40 MLOAD DUP1 SWAP2 SUB SWAP1 REVERT JUMPDEST DUP1 PUSH1 0x6 ADD DUP1 SLOAD SWAP1 POP DUP8 LT PUSH2 0x43E JUMPI PUSH1 0x40 MLOAD PUSH32 0x8C379A000000000000000000000000000000000000000000000000000000000 DUP2 MSTORE PUSH1 0x4 ADD PUSH2 0x435 SWAP1 PUSH2 0x1212 JUMP JUMPDEST PUSH1 0x40 MLOAD DUP1 SWAP2 SUB SWAP1 REVERT JUMPDEST PUSH1 0x0 DUP2 PUSH1 0x6 ADD DUP9 DUP2 SLOAD DUP2 LT PUSH2 0x456 JUMPI PUSH2 0x455 PUSH2 0x1232 JUMP JUMPDEST JUMPDEST SWAP1 PUSH1 0x0 MSTORE PUSH1 0x20 PUSH1 0x0 KECCAK256 SWAP1 PUSH1 0x4 MUL ADD SWAP1 POP DUP1 PUSH1 0x0 ADD DUP2 PUSH1 0x1 ADD SLOAD DUP3 PUSH1 0x2 ADD SLOAD DUP4 PUSH1 0x3 ADD PUSH1 0x0 SWAP1 SLOAD SWAP1 PUSH2 0x100 EXP SWAP1 DIV PUSH1 0xFF AND DUP5 PUSH1 0x3 ADD PUSH1 0x1 SWAP1 SLOAD SWAP1 PUSH2 0x100 EXP SWAP1 DIV PUSH1 0xFF AND DUP5 DUP1 SLOAD PUSH2 0x4A4 SWAP1 PUSH2 0x1290 JUMP JUMPDEST DUP1 PUSH1 0x1F ADD PUSH1 0x20 DUP1 SWAP2 DIV MUL PUSH1 0x20 ADD PUSH1 0x40 MLOAD SWAP1 DUP2 ADD PUSH1 0x40 MSTORE DUP1 SWAP3 SWAP2 SWAP1 DUP2 DUP2 MSTORE PUSH1 0x20 ADD DUP3 DUP1 SLOAD PUSH2 0x4D0 SWAP1 PUSH2 0x1290 JUMP JUMPDEST DUP1 ISZERO PUSH2 0x51D JUMPI DUP1 PUSH1 0x1F LT PUSH2 0x4F2 JUMPI PUSH2 0x100 DUP1 DUP4 SLOAD DIV MUL DUP4 MSTORE SWAP2 PUSH1 0x20 ADD SWAP2 PUSH2 0x51D JUMP JUMPDEST DUP3 ADD SWAP2 SWAP1 PUSH1 0x0 MSTORE PUSH1 0x20 PUSH1 0x0 KECCAK256 SWAP1 JUMPDEST DUP2 SLOAD DUP2 MSTORE SWAP1 PUSH1 0x1 ADD SWAP1 PUSH1 0x20 ADD DUP1 DUP4 GT PUSH2 0x500 JUMPI DUP3 SWAP1 SUB PUSH1 0x1F AND DUP3 ADD SWAP2 JUMPDEST POP POP POP POP POP SWAP5 POP SWAP7 POP SWAP7 POP SWAP7 POP SWAP7 POP SWAP7 POP POP POP SWAP3 SWAP6 POP SWAP3 SWAP6 SWAP1 SWAP4 POP JUMP JUMPDEST PUSH1 0x0 DUP1 SLOAD SWAP1 PUSH2 0x100 EXP SWAP1 DIV PUSH20 0xFFFFFFFFFFFFFFFFFFFFFFFFFFFFFFFFFFFFFFFF AND PUSH20 0xFFFFFFFFFFFFFFFFFFFFFFFFFFFFFFFFFFFFFFFF AND CALLER PUSH20 0xFFFFFFFFFFFFFFFFFFFFFFFFFFFFFFFFFFFFFFFF AND EQ PUSH2 0x5C8 JUMPI PUSH1 0x40 MLOAD PUSH32 0x8C379A000000000000000000000000000000000000000000000000000000000 DUP2 MSTORE PUSH1 0x4 ADD PUSH2 0x5BF SWAP1 PUSH2 0x10A5 JUMP JUMPDEST PUSH1 0x40 MLOAD DUP1 SWAP2 SUB SWAP1 REVERT JUMPDEST PUSH1 0x0 PUSH1 0x1 PUSH1 0x0 DUP9 DUP2 MSTORE PUSH1 0x20 ADD SWAP1 DUP2 MSTORE PUSH1 0x20 ADD PUSH1 0x0 KECCAK256 SWAP1 POP DUP1 PUSH1 0x5 ADD PUSH1 0x0 SWAP1 SLOAD SWAP1 PUSH2 0x100 EXP SWAP1 DIV PUSH1 0xFF AND PUSH2 0x630 JUMPI PUSH1 0x40 MLOAD PUSH32 0x8C379A000000000000000000000000000000000000000000000000000000000 DUP2 MSTORE PUSH1 0x4 ADD PUSH2 0x627 SWAP1 PUSH2 0x11A6 JUMP JUMPDEST PUSH1 0x40 MLOAD DUP1 SWAP2 SUB SWAP1 REVERT JUMPDEST DUP1 PUSH1 0x6 ADD PUSH1 0x40 MLOAD DUP1 PUSH1 0xA0 ADD PUSH1 0x40 MSTORE DUP1 DUP9 DUP9 DUP1 DUP1 PUSH1 0x1F ADD PUSH1 0x20 DUP1 SWAP2 DIV MUL PUSH1 0x20 ADD PUSH1 0x40 MLOAD SWAP1 DUP2 ADD PUSH1 0x40 MSTORE DUP1 SWAP4 SWAP3 SWAP2 SWAP1 DUP2 DUP2 MSTORE PUSH1 0x20 ADD DUP4 DUP4 DUP1 DUP3 DUP5 CALLDATACOPY PUSH1 0x0 DUP2 DUP5 ADD MSTORE PUSH1 0x1F NOT PUSH1 0x1F DUP3 ADD AND SWAP1 POP DUP1 DUP4 ADD SWAP3 POP POP POP POP POP POP POP DUP2 MSTORE PUSH1 0x20 ADD DUP7 DUP2 MSTORE PUSH1 0x20 ADD DUP6 DUP2 MSTORE PUSH1 0x20 ADD DUP5 ISZERO ISZERO DUP2 MSTORE PUSH1 0x20 ADD PUSH1 0x0 ISZERO ISZERO DUP2 MSTORE POP SWAP1 DUP1 PUSH1 0x1 DUP2 SLOAD ADD DUP1 DUP3 SSTORE DUP1 SWAP2 POP POP PUSH1 0x1 SWAP1 SUB SWAP1 PUSH1 0x0 MSTORE PUSH1 0x20 PUSH1 0x0 KECCAK256 SWAP1 PUSH1 0x4 MUL ADD PUSH1 0x0 SWAP1 SWAP2 SWAP1 SWAP2 SWAP1 SWAP2 POP PUSH1 0x0 DUP3 ADD MLOAD DUP2 PUSH1 0x0 ADD SWAP1 DUP2 PUSH2 0x6E2 SWAP2 SWAP1 PUSH2 0x149C JUMP JUMPDEST POP PUSH1 0x20 DUP3 ADD MLOAD DUP2 PUSH1 0x1 ADD SSTORE PUSH1 0x40 DUP3 ADD MLOAD DUP2 PUSH1 0x2 ADD SSTORE PUSH1 0x60 DUP3 ADD MLOAD DUP2 PUSH1 0x3 ADD PUSH1 0x0 PUSH2 0x100 EXP DUP2 SLOAD DUP2 PUSH1 0xFF MUL NOT AND SWAP1 DUP4 ISZERO ISZERO MUL OR SWAP1 SSTORE POP PUSH1 0x80 DUP3 ADD MLOAD DUP2 PUSH1 0x3 ADD PUSH1 0x1 PUSH2 0x100 EXP DUP2 SLOAD DUP2 PUSH1 0xFF MUL NOT AND SWAP1 DUP4 ISZERO ISZERO MUL OR SWAP1 SSTORE POP POP POP PUSH1 0x1 DUP2 PUSH1 0x6 ADD DUP1 SLOAD SWAP1 POP PUSH2 0x74D SWAP2 SWAP1 PUSH2 0x159D JUMP JUMPDEST DUP8 PUSH32 0xEAF44C69844858E28AE386ED1C1F7B905798EFB21F46D08D3EEB4DD08F1FF967 DUP9 DUP9 DUP9 DUP9 DUP9 PUSH1 0x40 MLOAD PUSH2 0x785 SWAP6 SWAP5 SWAP4 SWAP3 SWAP2 SWAP1 PUSH2 0x160D JUMP JUMPDEST PUSH1 0x40 MLOAD DUP1 SWAP2 SUB SWAP1 LOG3 POP POP POP POP POP POP POP JUMP JUMPDEST PUSH1 0x0 DUP1 SLOAD SWAP1 PUSH2 0x100 EXP SWAP1 DIV PUSH20 0xFFFFFFFFFFFFFFFFFFFFFFFFFFFFFFFFFFFFFFFF AND PUSH20 0xFFFFFFFFFFFFFFFFFFFFFFFFFFFFFFFFFFFFFFFF AND CALLER PUSH20 0xFFFFFFFFFFFFFFFFFFFFFFFFFFFFFFFFFFFFFFFF AND EQ PUSH2 0x824 JUMPI PUSH1 0x40 MLOAD PUSH32 0x8C379A000000000000000000000000000000000000000000000000000000000 DUP2 MSTORE PUSH1 0x4 ADD PUSH2 0x81B SWAP1 PUSH2 0x10A5 JUMP JUMPDEST PUSH1 0x40 MLOAD DUP1 SWAP2 SUB SWAP1 REVERT JUMPDEST PUSH1 0x0 PUSH1 0x1 PUSH1 0x0 DUP5 DUP2 MSTORE PUSH1 0x20 ADD SWAP1 DUP2 MSTORE PUSH1 0x20 ADD PUSH1 0x0 KECCAK256 SWAP1 POP DUP1 PUSH1 0x5 ADD PUSH1 0x0 SWAP1 SLOAD SWAP1 PUSH2 0x100 EXP SWAP1 DIV PUSH1 0xFF AND PUSH2 0x88C JUMPI PUSH1 0x40 MLOAD PUSH32 0x8C379A000000000000000000000000000000000000000000000000000000000 DUP2 MSTORE PUSH1 0x4 ADD PUSH2 0x883 SWAP1 PUSH2 0x11A6 JUMP JUMPDEST PUSH1 0x40 MLOAD DUP1 SWAP2 SUB SWAP1 REVERT JUMPDEST DUP1 PUSH1 0x6 ADD DUP1 SLOAD SWAP1 POP DUP3 LT PUSH2 0x8D5 JUMPI PUSH1 0x40 MLOAD PUSH32 0x8C379A000000000000000000000000000000000000000000000000000000000 DUP2 MSTORE PUSH1 0x4 ADD PUSH2 0x8CC SWAP1 PUSH2 0x1212 JUMP JUMPDEST PUSH1 0x40 MLOAD DUP1 SWAP2 SUB SWAP1 REVERT JUMPDEST PUSH1 0x0 DUP2 PUSH1 0x6 ADD DUP4 DUP2 SLOAD DUP2 LT PUSH2 0x8ED JUMPI PUSH2 0x8EC PUSH2 0x1232 JUMP JUMPDEST JUMPDEST SWAP1 PUSH1 0x0 MSTORE PUSH1 0x20 PUSH1 0x0 KECCAK256 SWAP1 PUSH1 0x4 MUL ADD SWAP1 POP DUP1 PUSH1 0x3 ADD PUSH1 0x1 SWAP1 SLOAD SWAP1 PUSH2 0x100 EXP SWAP1 DIV PUSH1 0xFF AND ISZERO PUSH2 0x94F JUMPI PUSH1 0x40 MLOAD PUSH32 0x8C379A000000000000000000000000000000000000000000000000000000000 DUP2 MSTORE PUSH1 0x4 ADD PUSH2 0x946 SWAP1 PUSH2 0x16A7 JUMP JUMPDEST PUSH1 0x40 MLOAD DUP1 SWAP2 SUB SWAP1 REVERT JUMPDEST PUSH1 0x0 PUSH1 0x64 DUP3 PUSH1 0x2 ADD SLOAD DUP5 PUSH1 0x3 ADD SLOAD PUSH2 0x967 SWAP2 SWAP1 PUSH2 0x16C7 JUMP JUMPDEST PUSH2 0x971 SWAP2 SWAP1 PUSH2 0x1738 JUMP JUMPDEST SWAP1 POP PUSH1 0x1 DUP3 PUSH1 0x3 ADD PUSH1 0x1 PUSH2 0x100 EXP DUP2 SLOAD DUP2 PUSH1 0xFF MUL NOT AND SWAP1 DUP4 ISZERO ISZERO MUL OR SWAP1 SSTORE POP DUP1 DUP4 PUSH1 0x4 ADD PUSH1 0x0 DUP3 DUP3 SLOAD PUSH2 0x9A4 SWAP2 SWAP1 PUSH2 0x1769 JUMP JUMPDEST SWAP3 POP POP DUP2 SWAP1 SSTORE POP DUP3 PUSH1 0x2 ADD PUSH1 0x0 SWAP1 SLOAD SWAP1 PUSH2 0x100 EXP SWAP1 DIV PUSH20 0xFFFFFFFFFFFFFFFFFFFFFFFFFFFFFFFFFFFFFFFF AND PUSH20 0xFFFFFFFFFFFFFFFFFFFFFFFFFFFFFFFFFFFFFFFF AND PUSH4 0xA9059CBB DUP5 PUSH1 0x1 ADD PUSH1 0x0 SWAP1 SLOAD SWAP1 PUSH2 0x100 EXP SWAP1 DIV PUSH20 0xFFFFFFFFFFFFFFFFFFFFFFFFFFFFFFFFFFFFFFFF AND DUP4 PUSH1 0x40 MLOAD DUP4 PUSH4 0xFFFFFFFF AND PUSH1 0xE0 SHL DUP2 MSTORE PUSH1 0x4 ADD PUSH2 0xA2E SWAP3 SWAP2 SWAP1 PUSH2 0x1131 JUMP JUMPDEST PUSH1 0x20 PUSH1 0x40 MLOAD DUP1 DUP4 SUB DUP2 PUSH1 0x0 DUP8 GAS CALL ISZERO DUP1 ISZERO PUSH2 0xA4D JUMPI RETURNDATASIZE PUSH1 0x0 DUP1 RETURNDATACOPY RETURNDATASIZE PUSH1 0x0 REVERT JUMPDEST POP POP POP POP PUSH1 0x40 MLOAD RETURNDATASIZE PUSH1 0x1F NOT PUSH1 0x1F DUP3 ADD AND DUP3 ADD DUP1 PUSH1 0x40 MSTORE POP DUP2 ADD SWAP1 PUSH2 0xA71 SWAP2 SWAP1 PUSH2 0x17B2 JUMP JUMPDEST PUSH2 0xAB0 JUMPI PUSH1 0x40 MLOAD PUSH32 0x8C379A000000000000000000000000000000000000000000000000000000000 DUP2 MSTORE PUSH1 0x4 ADD PUSH2 0xAA7 SWAP1 PUSH2 0x182B JUMP JUMPDEST PUSH1 0x40 MLOAD DUP1 SWAP2 SUB SWAP1 REVERT JUMPDEST DUP4 DUP6 PUSH32 0x164638991557D57E3670982ECF72FB1154F7E1D09C7BA046DD0BD196C489E447 DUP4 DUP7 PUSH1 0x1 ADD PUSH1 0x0 SWAP1 SLOAD SWAP1 PUSH2 0x100 EXP SWAP1 DIV PUSH20 0xFFFFFFFFFFFFFFFFFFFFFFFFFFFFFFFFFFFFFFFF AND PUSH1 0x40 MLOAD PUSH2 0xB07 SWAP3 SWAP2 SWAP1 PUSH2 0x184B JUMP JUMPDEST PUSH1 0x40 MLOAD DUP1 SWAP2 SUB SWAP1 LOG3 POP POP POP POP POP JUMP JUMPDEST PUSH1 0x0 DUP1 PUSH1 0x0 DUP1 PUSH1 0x0 DUP1 PUSH1 0x1 PUSH1 0x0 DUP9 DUP2 MSTORE PUSH1 0x20 ADD SWAP1 DUP2 MSTORE PUSH1 0x20 ADD PUSH1 0x0 KECCAK256 SWAP1 POP DUP1 PUSH1 0x5 ADD PUSH1 0x0 SWAP1 SLOAD SWAP1 PUSH2 0x100 EXP SWAP1 DIV PUSH1 0xFF AND PUSH2 0xB85 JUMPI PUSH1 0x40 MLOAD PUSH32 0x8C379A000000000000000000000000000000000000000000000000000000000 DUP2 MSTORE PUSH1 0x4 ADD PUSH2 0xB7C SWAP1 PUSH2 0x11A6 JUMP JUMPDEST PUSH1 0x40 MLOAD DUP1 SWAP2 SUB SWAP1 REVERT JUMPDEST DUP1 PUSH1 0x1 ADD PUSH1 0x0 SWAP1 SLOAD SWAP1 PUSH2 0x100 EXP SWAP1 DIV PUSH20 0xFFFFFFFFFFFFFFFFFFFFFFFFFFFFFFFFFFFFFFFF AND DUP2 PUSH1 0x2 ADD PUSH1 0x0 SWAP1 SLOAD SWAP1 PUSH2 0x100 EXP SWAP1 DIV PUSH20 0xFFFFFFFFFFFFFFFFFFFFFFFFFFFFFFFFFFFFFFFF AND DUP3 PUSH1 0x3 ADD SLOAD DUP4 PUSH1 0x4 ADD SLOAD DUP5 PUSH1 0x6 ADD DUP1 SLOAD SWAP1 POP SWAP6 POP SWAP6 POP SWAP6 POP SWAP6 POP SWAP6 POP POP SWAP2 SWAP4 SWAP6 SWAP1 SWAP3 SWAP5 POP JUMP JUMPDEST PUSH1 0x0 PUSH20 0xFFFFFFFFFFFFFFFFFFFFFFFFFFFFFFFFFFFFFFFF DUP3 AND SWAP1 POP SWAP2 SWAP1 POP JUMP JUMPDEST PUSH1 0x0 PUSH2 0xC20 DUP3 PUSH2 0xBF5 JUMP JUMPDEST SWAP1 POP SWAP2 SWAP1 POP JUMP JUMPDEST PUSH2 0xC30 DUP2 PUSH2 0xC15 JUMP JUMPDEST DUP3 MSTORE POP POP JUMP JUMPDEST PUSH1 0x0 PUSH1 0x20 DUP3 ADD SWAP1 POP PUSH2 0xC4B PUSH1 0x0 DUP4 ADD DUP5 PUSH2 0xC27 JUMP JUMPDEST SWAP3 SWAP2 POP POP JUMP JUMPDEST PUSH1 0x0 DUP1 REVERT JUMPDEST PUSH1 0x0 DUP1 REVERT JUMPDEST PUSH1 0x0 DUP2 SWAP1 POP SWAP2 SWAP1 POP JUMP JUMPDEST PUSH2 0xC6E DUP2 PUSH2 0xC5B JUMP JUMPDEST DUP2 EQ PUSH2 0xC79 JUMPI PUSH1 0x0 DUP1 REVERT JUMPDEST POP JUMP JUMPDEST PUSH1 0x0 DUP2 CALLDATALOAD SWAP1 POP PUSH2 0xC8B DUP2 PUSH2 0xC65 JUMP JUMPDEST SWAP3 SWAP2 POP POP JUMP JUMPDEST PUSH2 0xC9A DUP2 PUSH2 0xC15 JUMP JUMPDEST DUP2 EQ PUSH2 0xCA5 JUMPI PUSH1 0x0 DUP1 REVERT JUMPDEST POP JUMP JUMPDEST PUSH1 0x0 DUP2 CALLDATALOAD SWAP1 POP PUSH2 0xCB7 DUP2 PUSH2 0xC91 JUMP JUMPDEST SWAP3 SWAP2 POP POP JUMP JUMPDEST PUSH1 0x0 DUP2 SWAP1 POP SWAP2 SWAP1 POP JUMP JUMPDEST PUSH2 0xCD0 DUP2 PUSH2 0xCBD JUMP JUMPDEST DUP2 EQ PUSH2 0xCDB JUMPI PUSH1 0x0 DUP1 REVERT JUMPDEST POP JUMP JUMPDEST PUSH1 0x0 DUP2 CALLDATALOAD SWAP1 POP PUSH2 0xCED DUP2 PUSH2 0xCC7 JUMP JUMPDEST SWAP3 SWAP2 POP POP JUMP JUMPDEST PUSH1 0x0 DUP1 PUSH1 0x0 DUP1 PUSH1 0x80 DUP6 DUP8 SUB SLT ISZERO PUSH2 0xD0D JUMPI PUSH2 0xD0C PUSH2 0xC51 JUMP JUMPDEST JUMPDEST PUSH1 0x0 PUSH2 0xD1B DUP8 DUP3 DUP9 ADD PUSH2 0xC7C JUMP JUMPDEST SWAP5 POP POP PUSH1 0x20 PUSH2 0xD2C DUP8 DUP3 DUP9 ADD PUSH2 0xCA8 JUMP JUMPDEST SWAP4 POP POP PUSH1 0x40 PUSH2 0xD3D DUP8 DUP3 DUP9 ADD PUSH2 0xCA8 JUMP JUMPDEST SWAP3 POP POP PUSH1 0x60 PUSH2 0xD4E DUP8 DUP3 DUP9 ADD PUSH2 0xCDE JUMP JUMPDEST SWAP2 POP POP SWAP3 SWAP6 SWAP2 SWAP5 POP SWAP3 POP JUMP JUMPDEST PUSH1 0x0 DUP1 PUSH1 0x40 DUP4 DUP6 SUB SLT ISZERO PUSH2 0xD71 JUMPI PUSH2 0xD70 PUSH2 0xC51 JUMP JUMPDEST JUMPDEST PUSH1 0x0 PUSH2 0xD7F DUP6 DUP3 DUP7 ADD PUSH2 0xC7C JUMP JUMPDEST SWAP3 POP POP PUSH1 0x20 PUSH2 0xD90 DUP6 DUP3 DUP7 ADD PUSH2 0xCDE JUMP JUMPDEST SWAP2 POP POP SWAP3 POP SWAP3 SWAP1 POP JUMP JUMPDEST PUSH1 0x0 DUP2 MLOAD SWAP1 POP SWAP2 SWAP1 POP JUMP JUMPDEST PUSH1 0x0 DUP3 DUP3 MSTORE PUSH1 0x20 DUP3 ADD SWAP1 POP SWAP3 SWAP2 POP POP JUMP JUMPDEST PUSH1 0x0 JUMPDEST DUP4 DUP2 LT ISZERO PUSH2 0xDD4 JUMPI DUP1 DUP3 ADD MLOAD DUP2 DUP5 ADD MSTORE PUSH1 0x20 DUP2 ADD SWAP1 POP PUSH2 0xDB9 JUMP JUMPDEST PUSH1 0x0 DUP5 DUP5 ADD MSTORE POP POP POP POP JUMP JUMPDEST PUSH1 0x0 PUSH1 0x1F NOT PUSH1 0x1F DUP4 ADD AND SWAP1 POP SWAP2 SWAP1 POP JUMP JUMPDEST PUSH1 0x0 PUSH2 0xDFC DUP3 PUSH2 0xD9A JUMP JUMPDEST PUSH2 0xE06 DUP2 DUP6 PUSH2 0xDA5 JUMP JUMPDEST SWAP4 POP PUSH2 0xE16 DUP2 DUP6 PUSH1 0x20 DUP7 ADD PUSH2 0xDB6 JUMP JUMPDEST PUSH2 0xE1F DUP2 PUSH2 0xDE0 JUMP JUMPDEST DUP5 ADD SWAP2 POP POP SWAP3 SWAP2 POP POP JUMP JUMPDEST PUSH2 0xE33 DUP2 PUSH2 0xCBD JUMP JUMPDEST DUP3 MSTORE POP POP JUMP JUMPDEST PUSH1 0x0 DUP2 ISZERO ISZERO SWAP1 POP SWAP2 SWAP1 POP JUMP JUMPDEST PUSH2 0xE4E DUP2 PUSH2 0xE39 JUMP JUMPDEST DUP3 MSTORE POP POP JUMP JUMPDEST PUSH1 0x0 PUSH1 0xA0 DUP3 ADD SWAP1 POP DUP2 DUP2 SUB PUSH1 0x0 DUP4 ADD MSTORE PUSH2 0xE6E DUP2 DUP9 PUSH2 0xDF1 JUMP JUMPDEST SWAP1 POP PUSH2 0xE7D PUSH1 0x20 DUP4 ADD DUP8 PUSH2 0xE2A JUMP JUMPDEST PUSH2 0xE8A PUSH1 0x40 DUP4 ADD DUP7 PUSH2 0xE2A JUMP JUMPDEST PUSH2 0xE97 PUSH1 0x60 DUP4 ADD DUP6 PUSH2 0xE45 JUMP JUMPDEST PUSH2 0xEA4 PUSH1 0x80 DUP4 ADD DUP5 PUSH2 0xE45 JUMP JUMPDEST SWAP7 SWAP6 POP POP POP POP POP POP JUMP JUMPDEST PUSH1 0x0 DUP1 REVERT JUMPDEST PUSH1 0x0 DUP1 REVERT JUMPDEST PUSH1 0x0 DUP1 REVERT JUMPDEST PUSH1 0x0 DUP1 DUP4 PUSH1 0x1F DUP5 ADD SLT PUSH2 0xED3 JUMPI PUSH2 0xED2 PUSH2 0xEAE JUMP JUMPDEST JUMPDEST DUP3 CALLDATALOAD SWAP1 POP PUSH8 0xFFFFFFFFFFFFFFFF DUP2 GT ISZERO PUSH2 0xEF0 JUMPI PUSH2 0xEEF PUSH2 0xEB3 JUMP JUMPDEST JUMPDEST PUSH1 0x20 DUP4 ADD SWAP2 POP DUP4 PUSH1 0x1 DUP3 MUL DUP4 ADD GT ISZERO PUSH2 0xF0C JUMPI PUSH2 0xF0B PUSH2 0xEB8 JUMP JUMPDEST JUMPDEST SWAP3 POP SWAP3 SWAP1 POP JUMP JUMPDEST PUSH2 0xF1C DUP2 PUSH2 0xE39 JUMP JUMPDEST DUP2 EQ PUSH2 0xF27 JUMPI PUSH1 0x0 DUP1 REVERT JUMPDEST POP JUMP JUMPDEST PUSH1 0x0 DUP2 CALLDATALOAD SWAP1 POP PUSH2 0xF39 DUP2 PUSH2 0xF13 JUMP JUMPDEST SWAP3 SWAP2 POP POP JUMP JUMPDEST PUSH1 0x0 DUP1 PUSH1 0x0 DUP1 PUSH1 0x0 DUP1 PUSH1 0xA0 DUP8 DUP10 SUB SLT ISZERO PUSH2 0xF5C JUMPI PUSH2 0xF5B PUSH2 0xC51 JUMP JUMPDEST JUMPDEST PUSH1 0x0 PUSH2 0xF6A DUP10 DUP3 DUP11 ADD PUSH2 0xC7C JUMP JUMPDEST SWAP7 POP POP PUSH1 0x20 DUP8 ADD CALLDATALOAD PUSH8 0xFFFFFFFFFFFFFFFF DUP2 GT ISZERO PUSH2 0xF8B JUMPI PUSH2 0xF8A PUSH2 0xC56 JUMP JUMPDEST JUMPDEST PUSH2 0xF97 DUP10 DUP3 DUP11 ADD PUSH2 0xEBD JUMP JUMPDEST SWAP6 POP SWAP6 POP POP PUSH1 0x40 PUSH2 0xFAA DUP10 DUP3 DUP11 ADD PUSH2 0xCDE JUMP JUMPDEST SWAP4 POP POP PUSH1 0x60 PUSH2 0xFBB DUP10 DUP3 DUP11 ADD PUSH2 0xCDE JUMP JUMPDEST SWAP3 POP POP PUSH1 0x80 PUSH2 0xFCC DUP10 DUP3 DUP11 ADD PUSH2 0xF2A JUMP JUMPDEST SWAP2 POP POP SWAP3 SWAP6 POP SWAP3 SWAP6 POP SWAP3 SWAP6 JUMP JUMPDEST PUSH1 0x0 PUSH1 0x20 DUP3 DUP5 SUB SLT ISZERO PUSH2 0xFEF JUMPI PUSH2 0xFEE PUSH2 0xC51 JUMP JUMPDEST JUMPDEST PUSH1 0x0 PUSH2 0xFFD DUP5 DUP3 DUP6 ADD PUSH2 0xC7C JUMP JUMPDEST SWAP2 POP POP SWAP3 SWAP2 POP POP JUMP JUMPDEST PUSH1 0x0 PUSH1 0xA0 DUP3 ADD SWAP1 POP PUSH2 0x101B PUSH1 0x0 DUP4 ADD DUP9 PUSH2 0xC27 JUMP JUMPDEST PUSH2 0x1028 PUSH1 0x20 DUP4 ADD DUP8 PUSH2 0xC27 JUMP JUMPDEST PUSH2 0x1035 PUSH1 0x40 DUP4 ADD DUP7 PUSH2 0xE2A JUMP JUMPDEST PUSH2 0x1042 PUSH1 0x60 DUP4 ADD DUP6 PUSH2 0xE2A JUMP JUMPDEST PUSH2 0x104F PUSH1 0x80 DUP4 ADD DUP5 PUSH2 0xE2A JUMP JUMPDEST SWAP7 SWAP6 POP POP POP POP POP POP JUMP JUMPDEST PUSH32 0x4F6E6C7920676F7665726E6D656E740000000000000000000000000000000000 PUSH1 0x0 DUP3 ADD MSTORE POP JUMP JUMPDEST PUSH1 0x0 PUSH2 0x108F PUSH1 0xF DUP4 PUSH2 0xDA5 JUMP JUMPDEST SWAP2 POP PUSH2 0x109A DUP3 PUSH2 0x1059 JUMP JUMPDEST PUSH1 0x20 DUP3 ADD SWAP1 POP SWAP2 SWAP1 POP JUMP JUMPDEST PUSH1 0x0 PUSH1 0x20 DUP3 ADD SWAP1 POP DUP2 DUP2 SUB PUSH1 0x0 DUP4 ADD MSTORE PUSH2 0x10BE DUP2 PUSH2 0x1082 JUMP JUMPDEST SWAP1 POP SWAP2 SWAP1 POP JUMP JUMPDEST PUSH32 0x50726F6A65637420657869737473000000000000000000000000000000000000 PUSH1 0x0 DUP3 ADD MSTORE POP JUMP JUMPDEST PUSH1 0x0 PUSH2 0x10FB PUSH1 0xE DUP4 PUSH2 0xDA5 JUMP JUMPDEST SWAP2 POP PUSH2 0x1106 DUP3 PUSH2 0x10C5 JUMP JUMPDEST PUSH1 0x20 DUP3 ADD SWAP1 POP SWAP2 SWAP1 POP JUMP JUMPDEST PUSH1 0x0 PUSH1 0x20 DUP3 ADD SWAP1 POP DUP2 DUP2 SUB PUSH1 0x0 DUP4 ADD MSTORE PUSH2 0x112A DUP2 PUSH2 0x10EE JUMP JUMPDEST SWAP1 POP SWAP2 SWAP1 POP JUMP JUMPDEST PUSH1 0x0 PUSH1 0x40 DUP3 ADD SWAP1 POP PUSH2 0x1146 PUSH1 0x0 DUP4 ADD DUP6 PUSH2 0xC27 JUMP JUMPDEST PUSH2 0x1153 PUSH1 0x20 DUP4 ADD DUP5 PUSH2 0xE2A JUMP JUMPDEST SWAP4 SWAP3 POP POP POP JUMP JUMPDEST PUSH32 0x4E6F2070726F6A65637400000000000000000000000000000000000000000000 PUSH1 0x0 DUP3 ADD MSTORE POP JUMP JUMPDEST PUSH1 0x0 PUSH2 0x1190 PUSH1 0xA DUP4 PUSH2 0xDA5 JUMP JUMPDEST SWAP2 POP PUSH2 0x119B DUP3 PUSH2 0x115A JUMP JUMPDEST PUSH1 0x20 DUP3 ADD SWAP1 POP SWAP2 SWAP1 POP JUMP JUMPDEST PUSH1 0x0 PUSH1 0x20 DUP3 ADD SWAP1 POP DUP2 DUP2 SUB PUSH1 0x0 DUP4 ADD MSTORE PUSH2 0x11BF DUP2 PUSH2 0x1183 JUMP JUMPDEST SWAP1 POP SWAP2 SWAP1 POP JUMP JUMPDEST PUSH32 0x496E76616C696420696E64657800000000000000000000000000000000000000 PUSH1 0x0 DUP3 ADD MSTORE POP JUMP JUMPDEST PUSH1 0x0 PUSH2 0x11FC PUSH1 0xD DUP4 PUSH2 0xDA5 JUMP JUMPDEST SWAP2 POP PUSH2 0x1207 DUP3 PUSH2 0x11C6 JUMP JUMPDEST PUSH1 0x20 DUP3 ADD SWAP1 POP SWAP2 SWAP1 POP JUMP JUMPDEST PUSH1 0x0 PUSH1 0x20 DUP3 ADD SWAP1 POP DUP2 DUP2 SUB PUSH1 0x0 DUP4 ADD MSTORE PUSH2 0x122B DUP2 PUSH2 0x11EF JUMP JUMPDEST SWAP1 POP SWAP2 SWAP1 POP JUMP JUMPDEST PUSH32 0x4E487B7100000000000000000000000000000000000000000000000000000000 PUSH1 0x0 MSTORE PUSH1 0x32 PUSH1 0x4 MSTORE PUSH1 0x24 PUSH1 0x0 REVERT JUMPDEST PUSH32 0x4E487B7100000000000000000000000000000000000000000000000000000000 PUSH1 0x0 MSTORE PUSH1 0x22 PUSH1 0x4 MSTORE PUSH1 0x24 PUSH1 0x0 REVERT JUMPDEST PUSH1 0x0 PUSH1 0x2 DUP3 DIV SWAP1 POP PUSH1 0x1 DUP3 AND DUP1 PUSH2 0x12A8 JUMPI PUSH1 0x7F DUP3 AND SWAP2 POP JUMPDEST PUSH1 0x20 DUP3 LT DUP2 SUB PUSH2 0x12BB JUMPI PUSH2 0x12BA PUSH2 0x1261 JUMP JUMPDEST JUMPDEST POP SWAP2 SWAP1 POP JUMP JUMPDEST PUSH32 0x4E487B7100000000000000000000000000000000000000000000000000000000 PUSH1 0x0 MSTORE PUSH1 0x41 PUSH1 0x4 MSTORE PUSH1 0x24 PUSH1 0x0 REVERT JUMPDEST PUSH1 0x0 DUP2 SWAP1 POP DUP2 PUSH1 0x0 MSTORE PUSH1 0x20 PUSH1 0x0 KECCAK256 SWAP1 POP SWAP2 SWAP1 POP JUMP JUMPDEST PUSH1 0x0 PUSH1 0x20 PUSH1 0x1F DUP4 ADD DIV SWAP1 POP SWAP2 SWAP1 POP JUMP JUMPDEST PUSH1 0x0 DUP3 DUP3 SHL SWAP1 POP SWAP3 SWAP2 POP POP JUMP JUMPDEST PUSH1 0x0 PUSH1 0x8 DUP4 MUL PUSH2 0x1352 PUSH32 0xFFFFFFFFFFFFFFFFFFFFFFFFFFFFFFFFFFFFFFFFFFFFFFFFFFFFFFFFFFFFFFFF DUP3 PUSH2 0x1315 JUMP JUMPDEST PUSH2 0x135C DUP7 DUP4 PUSH2 0x1315 JUMP JUMPDEST SWAP6 POP DUP1 NOT DUP5 AND SWAP4 POP DUP1 DUP7 AND DUP5 OR SWAP3 POP POP POP SWAP4 SWAP3 POP POP POP JUMP JUMPDEST PUSH1 0x0 DUP2 SWAP1 POP SWAP2 SWAP1 POP JUMP JUMPDEST PUSH1 0x0 PUSH2 0x1399 PUSH2 0x1394 PUSH2 0x138F DUP5 PUSH2 0xCBD JUMP JUMPDEST PUSH2 0x1374 JUMP JUMPDEST PUSH2 0xCBD JUMP JUMPDEST SWAP1 POP SWAP2 SWAP1 POP JUMP JUMPDEST PUSH1 0x0 DUP2 SWAP1 POP SWAP2 SWAP1 POP JUMP JUMPDEST PUSH2 0x13B3 DUP4 PUSH2 0x137E JUMP JUMPDEST PUSH2 0x13C7 PUSH2 0x13BF DUP3 PUSH2 0x13A0 JUMP JUMPDEST DUP5 DUP5 SLOAD PUSH2 0x1322 JUMP JUMPDEST DUP3 SSTORE POP POP POP POP JUMP JUMPDEST PUSH1 0x0 SWAP1 JUMP JUMPDEST PUSH2 0x13DC PUSH2 0x13CF JUMP JUMPDEST PUSH2 0x13E7 DUP2 DUP5 DUP5 PUSH2 0x13AA JUMP JUMPDEST POP POP POP JUMP JUMPDEST JUMPDEST DUP2 DUP2 LT ISZERO PUSH2 0x140B JUMPI PUSH2 0x1400 PUSH1 0x0 DUP3 PUSH2 0x13D4 JUMP JUMPDEST PUSH1 0x1 DUP2 ADD SWAP1 POP PUSH2 0x13ED JUMP JUMPDEST POP POP JUMP JUMPDEST PUSH1 0x1F DUP3 GT ISZERO PUSH2 0x1450 JUMPI PUSH2 0x1421 DUP2 PUSH2 0x12F0 JUMP JUMPDEST PUSH2 0x142A DUP5 PUSH2 0x1305 JUMP JUMPDEST DUP2 ADD PUSH1 0x20 DUP6 LT ISZERO PUSH2 0x1439 JUMPI DUP2 SWAP1 POP JUMPDEST PUSH2 0x144D PUSH2 0x1445 DUP6 PUSH2 0x1305 JUMP JUMPDEST DUP4 ADD DUP3 PUSH2 0x13EC JUMP JUMPDEST POP POP JUMPDEST POP POP POP JUMP JUMPDEST PUSH1 0x0 DUP3 DUP3 SHR SWAP1 POP SWAP3 SWAP2 POP POP JUMP JUMPDEST PUSH1 0x0 PUSH2 0x1473 PUSH1 0x0 NOT DUP5 PUSH1 0x8 MUL PUSH2 0x1455 JUMP JUMPDEST NOT DUP1 DUP4 AND SWAP2 POP POP SWAP3 SWAP2 POP POP JUMP JUMPDEST PUSH1 0x0 PUSH2 0x148C DUP4 DUP4 PUSH2 0x1462 JUMP JUMPDEST SWAP2 POP DUP3 PUSH1 0x2 MUL DUP3 OR SWAP1 POP SWAP3 SWAP2 POP POP JUMP JUMPDEST PUSH2 0x14A5 DUP3 PUSH2 0xD9A JUMP JUMPDEST PUSH8 0xFFFFFFFFFFFFFFFF DUP2 GT ISZERO PUSH2 0x14BE JUMPI PUSH2 0x14BD PUSH2 0x12C1 JUMP JUMPDEST JUMPDEST PUSH2 0x14C8 DUP3 SLOAD PUSH2 0x1290 JUMP JUMPDEST PUSH2 0x14D3 DUP3 DUP3 DUP6 PUSH2 0x140F JUMP JUMPDEST PUSH1 0x0 PUSH1 0x20 SWAP1 POP PUSH1 0x1F DUP4 GT PUSH1 0x1 DUP2 EQ PUSH2 0x1506 JUMPI PUSH1 0x0 DUP5 ISZERO PUSH2 0x14F4 JUMPI DUP3 DUP8 ADD MLOAD SWAP1 POP JUMPDEST PUSH2 0x14FE DUP6 DUP3 PUSH2 0x1480 JUMP JUMPDEST DUP7 SSTORE POP PUSH2 0x1566 JUMP JUMPDEST PUSH1 0x1F NOT DUP5 AND PUSH2 0x1514 DUP7 PUSH2 0x12F0 JUMP JUMPDEST PUSH1 0x0 JUMPDEST DUP3 DUP2 LT ISZERO PUSH2 0x153C JUMPI DUP5 DUP10 ADD MLOAD DUP3 SSTORE PUSH1 0x1 DUP3 ADD SWAP2 POP PUSH1 0x20 DUP6 ADD SWAP5 POP PUSH1 0x20 DUP2 ADD SWAP1 POP PUSH2 0x1517 JUMP JUMPDEST DUP7 DUP4 LT ISZERO PUSH2 0x1559 JUMPI DUP5 DUP10 ADD MLOAD PUSH2 0x1555 PUSH1 0x1F DUP10 AND DUP3 PUSH2 0x1462 JUMP JUMPDEST DUP4 SSTORE POP JUMPDEST PUSH1 0x1 PUSH1 0x2 DUP9 MUL ADD DUP9 SSTORE POP POP POP JUMPDEST POP POP POP POP POP POP JUMP JUMPDEST PUSH32 0x4E487B7100000000000000000000000000000000000000000000000000000000 PUSH1 0x0 MSTORE PUSH1 0x11 PUSH1 0x4 MSTORE PUSH1 0x24 PUSH1 0x0 REVERT JUMPDEST PUSH1 0x0 PUSH2 0x15A8 DUP3 PUSH2 0xCBD JUMP JUMPDEST SWAP2 POP PUSH2 0x15B3 DUP4 PUSH2 0xCBD JUMP JUMPDEST SWAP3 POP DUP3 DUP3 SUB SWAP1 POP DUP2 DUP2 GT ISZERO PUSH2 0x15CB JUMPI PUSH2 0x15CA PUSH2 0x156E JUMP JUMPDEST JUMPDEST SWAP3 SWAP2 POP POP JUMP JUMPDEST DUP3 DUP2 DUP4 CALLDATACOPY PUSH1 0x0 DUP4 DUP4 ADD MSTORE POP POP POP JUMP JUMPDEST PUSH1 0x0 PUSH2 0x15EC DUP4 DUP6 PUSH2 0xDA5 JUMP JUMPDEST SWAP4 POP PUSH2 0x15F9 DUP4 DUP6 DUP5 PUSH2 0x15D1 JUMP JUMPDEST PUSH2 0x1602 DUP4 PUSH2 0xDE0 JUMP JUMPDEST DUP5 ADD SWAP1 POP SWAP4 SWAP3 POP POP POP JUMP JUMPDEST PUSH1 0x0 PUSH1 0x80 DUP3 ADD SWAP1 POP DUP2 DUP2 SUB PUSH1 0x0 DUP4 ADD MSTORE PUSH2 0x1628 DUP2 DUP8 DUP10 PUSH2 0x15E0 JUMP JUMPDEST SWAP1 POP PUSH2 0x1637 PUSH1 0x20 DUP4 ADD DUP7 PUSH2 0xE2A JUMP JUMPDEST PUSH2 0x1644 PUSH1 0x40 DUP4 ADD DUP6 PUSH2 0xE2A JUMP JUMPDEST PUSH2 0x1651 PUSH1 0x60 DUP4 ADD DUP5 PUSH2 0xE45 JUMP JUMPDEST SWAP7 SWAP6 POP POP POP POP POP POP JUMP JUMPDEST PUSH32 0x416C726561647920636F6D706C65746564000000000000000000000000000000 PUSH1 0x0 DUP3 ADD MSTORE POP JUMP JUMPDEST PUSH1 0x0 PUSH2 0x1691 PUSH1 0x11 DUP4 PUSH2 0xDA5 JUMP JUMPDEST SWAP2 POP PUSH2 0x169C DUP3 PUSH2 0x165B JUMP JUMPDEST PUSH1 0x20 DUP3 ADD SWAP1 POP SWAP2 SWAP1 POP JUMP JUMPDEST PUSH1 0x0 PUSH1 0x20 DUP3 ADD SWAP1 POP DUP2 DUP2 SUB PUSH1 0x0 DUP4 ADD MSTORE PUSH2 0x16C0 DUP2 PUSH2 0x1684 JUMP JUMPDEST SWAP1 POP SWAP2 SWAP1 POP JUMP JUMPDEST PUSH1 0x0 PUSH2 0x16D2 DUP3 PUSH2 0xCBD JUMP JUMPDEST SWAP2 POP PUSH2 0x16DD DUP4 PUSH2 0xCBD JUMP JUMPDEST SWAP3 POP DUP3 DUP3 MUL PUSH2 0x16EB DUP2 PUSH2 0xCBD JUMP JUMPDEST SWAP2 POP DUP3 DUP3 DIV DUP5 EQ DUP4 ISZERO OR PUSH2 0x1702 JUMPI PUSH2 0x1701 PUSH2 0x156E JUMP JUMPDEST JUMPDEST POP SWAP3 SWAP2 POP POP JUMP JUMPDEST PUSH32 0x4E487B7100000000000000000000000000000000000000000000000000000000 PUSH1 0x0 MSTORE PUSH1 0x12 PUSH1 0x4 MSTORE PUSH1 0x24 PUSH1 0x0 REVERT JUMPDEST PUSH1 0x0 PUSH2 0x1743 DUP3 PUSH2 0xCBD JUMP JUMPDEST SWAP2 POP PUSH2 0x174E DUP4 PUSH2 0xCBD JUMP JUMPDEST SWAP3 POP DUP3 PUSH2 0x175E JUMPI PUSH2 0x175D PUSH2 0x1709 JUMP JUMPDEST JUMPDEST DUP3 DUP3 DIV SWAP1 POP SWAP3 SWAP2 POP POP JUMP JUMPDEST PUSH1 0x0 PUSH2 0x1774 DUP3 PUSH2 0xCBD JUMP JUMPDEST SWAP2 POP PUSH2 0x177F DUP4 PUSH2 0xCBD JUMP JUMPDEST SWAP3 POP DUP3 DUP3 ADD SWAP1 POP DUP1 DUP3 GT ISZERO PUSH2 0x1797 JUMPI PUSH2 0x1796 PUSH2 0x156E JUMP JUMPDEST JUMPDEST SWAP3 SWAP2 POP POP JUMP JUMPDEST PUSH1 0x0 DUP2 MLOAD SWAP1 POP PUSH2 0x17AC DUP2 PUSH2 0xF13 JUMP JUMPDEST SWAP3 SWAP2 POP POP JUMP JUMPDEST PUSH1 0x0 PUSH1 0x20 DUP3 DUP5 SUB SLT ISZERO PUSH2 0x17C8 JUMPI PUSH2 0x17C7 PUSH2 0xC51 JUMP JUMPDEST JUMPDEST PUSH1 0x0 PUSH2 0x17D6 DUP5 DUP3 DUP6 ADD PUSH2 0x179D JUMP JUMPDEST SWAP2 POP POP SWAP3 SWAP2 POP POP JUMP JUMPDEST PUSH32 0x546F6B656E207472616E73666572206661696C65640000000000000000000000 PUSH1 0x0 DUP3 ADD MSTORE POP JUMP JUMPDEST PUSH1 0x0 PUSH2 0x1815 PUSH1 0x15 DUP4 PUSH2 0xDA5 JUMP JUMPDEST SWAP2 POP PUSH2 0x1820 DUP3 PUSH2 0x17DF JUMP JUMPDEST PUSH1 0x20 DUP3 ADD SWAP1 POP SWAP2 SWAP1 POP JUMP JUMPDEST PUSH1 0x0 PUSH1 0x20 DUP3 ADD SWAP1 POP DUP2 DUP2 SUB PUSH1 0x0 DUP4 ADD MSTORE PUSH2 0x1844 DUP2 PUSH2 0x1808 JUMP JUMPDEST SWAP1 POP SWAP2 SWAP1 POP JUMP JUMPDEST PUSH1 0x0 PUSH1 0x40 DUP3 ADD SWAP1 POP PUSH2 0x1860 PUSH1 0x0 DUP4 ADD DUP6 PUSH2 0xE2A JUMP JUMPDEST PUSH2 0x186D PUSH1 0x20 DUP4 ADD DUP5 PUSH2 0xC27 JUMP JUMPDEST SWAP4 SWAP3 POP POP POP JUMP INVALID LOG2 PUSH5 0x6970667358 0x22 SLT KECCAK256 PUSH8 0x12ED4C188518BFF6 SWAP10 0xC1 0xB3 PUSH29 0xAC231E15A8370F497279DF8F8A2A195ED94A6864736F6C634300081300 CALLER "},"methodIdentifiers":{"addMilestone(bytes32,string,uint256,uint256,bool)":"aa2591ef","createProject(bytes32,address,address,uint256)":"54626bed","getMilestone(bytes32,uint256)":"7f6661c8","getProjectInfo(bytes32)":"e0566833","government()":"2672f526","markMilestoneComplete(bytes32,uint256)":"db438794"}}}}}