{
  "_format": "hh-sol-artifact-1",
  "contractName": "SubsidyManager",
  "sourceName": "contracts/SubsidyManager.sol",
  "abi": [
    {
      "inputs": [],
      "stateMutability": "nonpayable",
      "type": "constructor"
    },
    {
      "anonymous": false,
      "inputs": [
        {
          "indexed": true,
          "internalType": "bytes32",
          "name": "projectId",
          "type": "bytes32"
        },
        {
          "indexed": true,
          "internalType": "uint256",
          "name": "index",
          "type": "uint256"
        },
        {
          "indexed": false,
          "internalType": "string",
          "name": "name",
          "type": "string"
        },
        {
          "indexed": false,
          "internalType": "uint256",
          "name": "requiredProduction",
          "type": "uint256"
        },
        {
          "indexed": false,
          "internalType": "uint256",
          "name": "percent",
          "type": "uint256"
        },
        {
          "indexed": false,
          "internalType": "bool",
          "name": "manual",
          "type": "bool"
        }
      ],
      "name": "MilestoneAdded",
      "type": "event"
    },
    {
      "anonymous": false,
      "inputs": [
        {
          "indexed": true,
          "internalType": "bytes32",
          "name": "projectId",
          "type": "bytes32"
        },
        {
          "indexed": true,
          "internalType": "uint256",
          "name": "index",
          "type": "uint256"
        },
        {
          "indexed": false,
          "internalType": "uint256",
          "name": "amount",
          "type": "uint256"
        },
        {
          "indexed": false,
          "internalType": "address",
          "name": "producer",
          "type": "address"
        }
      ],
      "name": "MilestoneCompleted",
      "type": "event"
    },
    {
      "anonymous": false,
      "inputs": [
        {
          "indexed": true,
          "internalType": "bytes32",
          "name": "projectId",
          "type": "bytes32"
        },
        {
          "indexed": true,
          "internalType": "address",
          "name": "producer",
          "type": "address"
        },
        {
          "indexed": false,
          "internalType": "address",
          "name": "token",
          "type": "address"
        },
        {
          "indexed": false,
          "internalType": "uint256",
          "name": "totalSubsidy",
          "type": "uint256"
        }
      ],
      "name": "ProjectCreated",
      "type": "event"
    },
    {
      "inputs": [
        {
          "internalType": "bytes32",
          "name": "projectId",
          "type": "bytes32"
        },
        {
          "internalType": "string",
          "name": "name",
          "type": "string"
        },
        {
          "internalType": "uint256",
          "name": "requiredProduction",
          "type": "uint256"
        },
        {
          "internalType": "uint256",
          "name": "percent",
          "type": "uint256"
        },
        {
          "internalType": "bool",
          "name": "manualVerification",
          "type": "bool"
        }
      ],
      "name": "addMilestone",
      "outputs": [],
      "stateMutability": "nonpayable",
      "type": "function"
    },
    {
      "inputs": [
        {
          "internalType": "bytes32",
          "name": "projectId",
          "type": "bytes32"
        },
        {
          "internalType": "address",
          "name": "producer",
          "type": "address"
        },
        {
          "internalType": "address",
          "name": "token",
          "type": "address"
        },
        {
          "internalType": "uint256",
          "name": "totalSubsidy",
          "type": "uint256"
        }
      ],
      "name": "createProject",
      "outputs": [],
      "stateMutability": "nonpayable",
      "type": "function"
    },
    {
      "inputs": [
        {
          "internalType": "bytes32",
          "name": "projectId",
          "type": "bytes32"
        },
        {
          "internalType": "uint256",
          "name": "index",
          "type": "uint256"
        }
      ],
      "name": "getMilestone",
      "outputs": [
        {
          "internalType": "string",
          "name": "name",
          "type": "string"
        },
        {
          "internalType": "uint256",
          "name": "requiredProduction",
          "type": "uint256"
        },
        {
          "internalType": "uint256",
          "name": "percent",
          "type": "uint256"
        },
        {
          "internalType": "bool",
          "name": "manualVerification",
          "type": "bool"
        },
        {
          "internalType": "bool",
          "name": "completed",
          "type": "bool"
        }
      ],
      "stateMutability": "view",
      "type": "function"
    },
    {
      "inputs": [
        {
          "internalType": "bytes32",
          "name": "projectId",
          "type": "bytes32"
        }
      ],
      "name": "getProjectInfo",
      "outputs": [
        {
          "internalType": "address",
          "name": "producer",
          "type": "address"
        },
        {
          "internalType": "address",
          "name": "token",
          "type": "address"
        },
        {
          "internalType": "uint256",
          "name": "totalSubsidy",
          "type": "uint256"
        },
        {
          "internalType": "uint256",
          "name": "released",
          "type": "uint256"
        },
        {
          "internalType": "uint256",
          "name": "milestoneCount",
          "type": "uint256"
        }
      ],
      "stateMutability": "view",
      "type": "function"
    },
    {
      "inputs": [],
      "name": "government",
      "outputs": [
        {
          "internalType": "address",
          "name": "",
          "type": "address"
        }
      ],
      "stateMutability": "view",
      "type": "function"
    },
    {
      "inputs": [
        {
          "internalType": "bytes32",
          "name": "projectId",
          "type": "bytes32"
        },
        {
          "internalType": "uint256",
          "name": "index",
          "type": "uint256"
        }
      ],
      "name": "markMilestoneComplete",
      "outputs": [],
      "stateMutability": "nonpayable",
      "type": "function"
    }
  ],
  "bytecode": "0x608060405234801561001057600080fd5b50336000806101000a81548173ffffffffffffffffffffffffffffffffffffffff021916908373ffffffffffffffffffffffffffffffffffffffff1602179055506118aa806100606000396000f3fe608060405234801561001057600080fd5b50600436106100625760003560e01c80632672f5261461006757806354626bed146100855780637f6661c8146100a1578063aa2591ef146100d5578063db438794146100f1578063e05668331461010d575b600080fd5b61006f610141565b60405161007c9190610c36565b60405180910390f35b61009f600480360381019061009a9190610cf3565b610165565b005b6100bb60048036038101906100b69190610d5a565b610385565b6040516100cc959493929190610e54565b60405180910390f35b6100ef60048036038101906100ea9190610f3f565b61053a565b005b61010b60048036038101906101069190610d5a565b610796565b005b61012760048036038101906101229190610fd9565b610b16565b604051610138959493929190611006565b60405180910390f35b60008054906101000a900473ffffffffffffffffffffffffffffffffffffffff1681565b60008054906101000a900473ffffffffffffffffffffffffffffffffffffffff1673ffffffffffffffffffffffffffffffffffffffff163373ffffffffffffffffffffffffffffffffffffffff16146101f3576040517f08c379a00000000000000000000000000000000000000000000000000000000081526004016101ea906110a5565b60405180910390fd5b6001600085815260200190815260200160002060050160009054906101000a900460ff1615610257576040517f08c379a000000000000000000000000000000000000000000000000000000000815260040161024e90611111565b60405180910390fd5b6000600160008681526020019081526020016000209050848160000181905550838160010160006101000a81548173ffffffffffffffffffffffffffffffffffffffff021916908373ffffffffffffffffffffffffffffffffffffffff160217905550828160020160006101000a81548173ffffffffffffffffffffffffffffffffffffffff021916908373ffffffffffffffffffffffffffffffffffffffff1602179055508181600301819055506000816004018190555060018160050160006101000a81548160ff0219169083151502179055508373ffffffffffffffffffffffffffffffffffffffff16857f1f3dc198274f9126187226163790f56ad50dc025c7f31b39b7db8b380636dd798585604051610376929190611131565b60405180910390a35050505050565b606060008060008060006001600089815260200190815260200160002090508060050160009054906101000a900460ff166103f5576040517f08c379a00000000000000000000000000000000000000000000000000000000081526004016103ec906111a6565b60405180910390fd5b8060060180549050871061043e576040517f08c379a000000000000000000000000000000000000000000000000000000000815260040161043590611212565b60405180910390fd5b600081600601888154811061045657610455611232565b5b9060005260206000209060040201905080600001816001015482600201548360030160009054906101000a900460ff168460030160019054906101000a900460ff168480546104a490611290565b80601f01602080910402602001604051908101604052809291908181526020018280546104d090611290565b801561051d5780601f106104f25761010080835404028352916020019161051d565b820191906000526020600020905b81548152906001019060200180831161050057829003601f168201915b505050505094509650965096509650965050509295509295909350565b60008054906101000a900473ffffffffffffffffffffffffffffffffffffffff1673ffffffffffffffffffffffffffffffffffffffff163373ffffffffffffffffffffffffffffffffffffffff16146105c8576040517f08c379a00000000000000000000000000000000000000000000000000000000081526004016105bf906110a5565b60405180910390fd5b60006001600088815260200190815260200160002090508060050160009054906101000a900460ff16610630576040517f08c379a0000000000000000000000000000000000000000000000000000000008152600401610627906111a6565b60405180910390fd5b806006016040518060a0016040528088888080601f016020809104026020016040519081016040528093929190818152602001838380828437600081840152601f19601f820116905080830192505050505050508152602001868152602001858152602001841515815260200160001515815250908060018154018082558091505060019003906000526020600020906004020160009091909190915060008201518160000190816106e2919061149c565b50602082015181600101556040820151816002015560608201518160030160006101000a81548160ff02191690831515021790555060808201518160030160016101000a81548160ff02191690831515021790555050506001816006018054905061074d919061159d565b877feaf44c69844858e28ae386ed1c1f7b905798efb21f46d08d3eeb4dd08f1ff967888888888860405161078595949392919061160d565b60405180910390a350505050505050565b60008054906101000a900473ffffffffffffffffffffffffffffffffffffffff1673ffffffffffffffffffffffffffffffffffffffff163373ffffffffffffffffffffffffffffffffffffffff1614610824576040517f08c379a000000000000000000000000000000000000000000000000000000000815260040161081b906110a5565b60405180910390fd5b60006001600084815260200190815260200160002090508060050160009054906101000a900460ff1661088c576040517f08c379a0000000000000000000000000000000000000000000000000000000008152600401610883906111a6565b60405180910390fd5b806006018054905082106108d5576040517f08c379a00000000000000000000000000000000000000000000000000000000081526004016108cc90611212565b60405180910390fd5b60008160060183815481106108ed576108ec611232565b5b906000526020600020906004020190508060030160019054906101000a900460ff161561094f576040517f08c379a0000000000000000000000000000000000000000000000000000000008152600401610946906116a7565b60405180910390fd5b600060648260020154846003015461096791906116c7565b6109719190611738565b905060018260030160016101000a81548160ff021916908315150217905550808360040160008282546109a49190611769565b925050819055508260020160009054906101000a900473ffffffffffffffffffffffffffffffffffffffff1673ffffffffffffffffffffffffffffffffffffffff1663a9059cbb8460010160009054906101000a900473ffffffffffffffffffffffffffffffffffffffff16836040518363ffffffff1660e01b8152600401610a2e929190611131565b6020604051808303816000875af1158015610a4d573d6000803e3d6000fd5b505050506040513d601f19601f82011682018060405250810190610a7191906117b2565b610ab0576040517f08c379a0000000000000000000000000000000000000000000000000000000008152600401610aa79061182b565b60405180910390fd5b83857f164638991557d57e3670982ecf72fb1154f7e1d09c7ba046dd0bd196c489e447838660010160009054906101000a900473ffffffffffffffffffffffffffffffffffffffff16604051610b0792919061184b565b60405180910390a35050505050565b6000806000806000806001600088815260200190815260200160002090508060050160009054906101000a900460ff16610b85576040517f08c379a0000000000000000000000000000000000000000000000000000000008152600401610b7c906111a6565b60405180910390fd5b8060010160009054906101000a900473ffffffffffffffffffffffffffffffffffffffff168160020160009054906101000a900473ffffffffffffffffffffffffffffffffffffffff16826003015483600401548460060180549050955095509550955095505091939590929450565b600073ffffffffffffffffffffffffffffffffffffffff82169050919050565b6000610c2082610bf5565b9050919050565b610c3081610c15565b82525050565b6000602082019050610c4b6000830184610c27565b92915050565b600080fd5b600080fd5b6000819050919050565b610c6e81610c5b565b8114610c7957600080fd5b50565b600081359050610c8b81610c65565b92915050565b610c9a81610c15565b8114610ca557600080fd5b50565b600081359050610cb781610c91565b92915050565b6000819050919050565b610cd081610cbd565b8114610cdb57600080fd5b50565b600081359050610ced81610cc7565b92915050565b60008060008060808587031215610d0d57610d0c610c51565b5b6000610d1b87828801610c7c565b9450506020610d2c87828801610ca8565b9350506040610d3d87828801610ca8565b9250506060610d4e87828801610cde565b91505092959194509250565b60008060408385031215610d7157610d70610c51565b5b6000610d7f85828601610c7c565b9250506020610d9085828601610cde565b9150509250929050565b600081519050919050565b600082825260208201905092915050565b60005b83811015610dd4578082015181840152602081019050610db9565b60008484015250505050565b6000601f19601f8301169050919050565b6000610dfc82610d9a565b610e068185610da5565b9350610e16818560208601610db6565b610e1f81610de0565b840191505092915050565b610e3381610cbd565b82525050565b60008115159050919050565b610e4e81610e39565b82525050565b600060a0820190508181036000830152610e6e8188610df1565b9050610e7d6020830187610e2a565b610e8a6040830186610e2a565b610e976060830185610e45565b610ea46080830184610e45565b9695505050505050565b600080fd5b600080fd5b600080fd5b60008083601f840112610ed357610ed2610eae565b5b8235905067ffffffffffffffff811115610ef057610eef610eb3565b5b602083019150836001820283011115610f0c57610f0b610eb8565b5b9250929050565b610f1c81610e39565b8114610f2757600080fd5b50565b600081359050610f3981610f13565b92915050565b60008060008060008060a08789031215610f5c57610f5b610c51565b5b6000610f6a89828a01610c7c565b965050602087013567ffffffffffffffff811115610f8b57610f8a610c56565b5b610f9789828a01610ebd565b95509550506040610faa89828a01610cde565b9350506060610fbb89828a01610cde565b9250506080610fcc89828a01610f2a565b9150509295509295509295565b600060208284031215610fef57610fee610c51565b5b6000610ffd84828501610c7c565b91505092915050565b600060a08201905061101b6000830188610c27565b6110286020830187610c27565b6110356040830186610e2a565b6110426060830185610e2a565b61104f6080830184610e2a565b9695505050505050565b7f4f6e6c7920676f7665726e6d656e740000000000000000000000000000000000600082015250565b600061108f600f83610da5565b915061109a82611059565b602082019050919050565b600060208201905081810360008301526110be81611082565b9050919050565b7f50726f6a65637420657869737473000000000000000000000000000000000000600082015250565b60006110fb600e83610da5565b9150611106826110c5565b602082019050919050565b6000602082019050818103600083015261112a816110ee565b9050919050565b60006040820190506111466000830185610c27565b6111536020830184610e2a565b9392505050565b7f4e6f2070726f6a65637400000000000000000000000000000000000000000000600082015250565b6000611190600a83610da5565b915061119b8261115a565b602082019050919050565b600060208201905081810360008301526111bf81611183565b9050919050565b7f496e76616c696420696e64657800000000000000000000000000000000000000600082015250565b60006111fc600d83610da5565b9150611207826111c6565b602082019050919050565b6000602082019050818103600083015261122b816111ef565b9050919050565b7f4e487b7100000000000000000000000000000000000000000000000000000000600052603260045260246000fd5b7f4e487b7100000000000000000000000000000000000000000000000000000000600052602260045260246000fd5b600060028204905060018216806112a857607f821691505b6020821081036112bb576112ba611261565b5b50919050565b7f4e487b7100000000000000000000000000000000000000000000000000000000600052604160045260246000fd5b60008190508160005260206000209050919050565b60006020601f8301049050919050565b600082821b905092915050565b6000600883026113527fffffffffffffffffffffffffffffffffffffffffffffffffffffffffffffffff82611315565b61135c8683611315565b95508019841693508086168417925050509392505050565b6000819050919050565b600061139961139461138f84610cbd565b611374565b610cbd565b9050919050565b6000819050919050565b6113b38361137e565b6113c76113bf826113a0565b848454611322565b825550505050565b600090565b6113dc6113cf565b6113e78184846113aa565b505050565b5b8181101561140b576114006000826113d4565b6001810190506113ed565b5050565b601f82111561145057611421816112f0565b61142a84611305565b81016020851015611439578190505b61144d61144585611305565b8301826113ec565b50505b505050565b600082821c905092915050565b600061147360001984600802611455565b1980831691505092915050565b600061148c8383611462565b9150826002028217905092915050565b6114a582610d9a565b67ffffffffffffffff8111156114be576114bd6112c1565b5b6114c88254611290565b6114d382828561140f565b600060209050601f83116001811461150657600084156114f4578287015190505b6114fe8582611480565b865550611566565b601f198416611514866112f0565b60005b8281101561153c57848901518255600182019150602085019450602081019050611517565b868310156115595784890151611555601f891682611462565b8355505b6001600288020188555050505b505050505050565b7f4e487b7100000000000000000000000000000000000000000000000000000000600052601160045260246000fd5b60006115a882610cbd565b91506115b383610cbd565b92508282039050818111156115cb576115ca61156e565b5b92915050565b82818337600083830152505050565b60006115ec8385610da5565b93506115f98385846115d1565b61160283610de0565b840190509392505050565b600060808201905081810360008301526116288187896115e0565b90506116376020830186610e2a565b6116446040830185610e2a565b6116516060830184610e45565b9695505050505050565b7f416c726561647920636f6d706c65746564000000000000000000000000000000600082015250565b6000611691601183610da5565b915061169c8261165b565b602082019050919050565b600060208201905081810360008301526116c081611684565b9050919050565b60006116d282610cbd565b91506116dd83610cbd565b92508282026116eb81610cbd565b915082820484148315176117025761170161156e565b5b5092915050565b7f4e487b7100000000000000000000000000000000000000000000000000000000600052601260045260246000fd5b600061174382610cbd565b915061174e83610cbd565b92508261175e5761175d611709565b5b828204905092915050565b600061177482610cbd565b915061177f83610cbd565b92508282019050808211156117975761179661156e565b5b92915050565b6000815190506117ac81610f13565b92915050565b6000602082840312156117c8576117c7610c51565b5b60006117d68482850161179d565b91505092915050565b7f546f6b656e207472616e73666572206661696c65640000000000000000000000600082015250565b6000611815601583610da5565b9150611820826117df565b602082019050919050565b6000602082019050818103600083015261184481611808565b9050919050565b60006040820190506118606000830185610e2a565b61186d6020830184610c27565b939250505056fea26469706673582212206712ed4c188518bff699c1b37cac231e15a8370f497279df8f8a2a195ed94a6864736f6c63430008130033",
  "linkReferences": {},
  "deployedLinkReferences": {}
}